:100000000C942A000C943F000C943F000C943F0089
:100010000C943F000C943F000C943F000C943F0064
:100020000C943F000C943F000C943F000C943F0054
:100030000C943F000C943F000C943F000C943F0044
:100040000C943F000C943F000C943F000C943F0034
:100050000C943F0011241FBECFE5D8E0DEBFCDBF1A
:1000600010E0A0E6B0E0EAEDF2E002C005900D92EB
:10007000A43CB107D9F70E9466010C946B010C9463
:1000800000000C9443004FEF64E081E00E94E10027
:100090004FEF65E081E00E94E10040E066E081E032
:1000A0000E94E1004FEF67E081E00E94E10080E5FF
:1000B0008DB9089540E064E081E00E94E10040E0F5
:1000C00065E081E00E94E1004FEF66E081E00E9480
:1000D000E10040E067E081E00E94E10080E48DB94A
:1000E00008958FB9779BFECF0895779BFECF8FB190
:1000F00008950F931F93CF938C01C0E0F801EC0F8C
:10010000F11D8081882321F00E947100CF5FF6CF1E
:10011000CF911F910F910895EF92FF920F931F932C
:10012000CF938C010E947500F8018083C0E0F80134
:10013000EC0FF11D8081833249F0CF5F7801EC0E26
:10014000F11C0E947500F7018083F1CF1082CF91DE
:100150001F910F91FF90EF900895CF93DF9384301C
:1001600060F5E82FF0E0E05AFF4FA081B0E0ED012C
:10017000219798E1899FF0011124EC59FF4F20E06D
:1001800088814081942F909589238883388181814B
:10019000542F5823352B38833C91982B93239C93D1
:1001A0009C913281342380958323892B8C932F5FFC
:1001B0003396283029F780E001C081E0DF91CF91AC
:1001C00008958430C8F46830B8F4E82FF0E0E05ABD
:1001D000FF4FE081F0E0229181E090E001C0880FC4
:1001E0006A95EAF7982F90959223908390818423C3
:1001F000892B808380E0089581E008958430C8F4DD
:100200006830B8F4E82FF0E0E05AFF4FE081F0E00A
:10021000208181E090E001C0880F6A95EAF7982F6D
:1002200090959223908390818423892B808380E012
:10023000089581E008958430D0F46830C0F4E82F48
:10024000F0E0E05AFF4FE081F0E03297808190E0EB
:1002500002C0959587956A95E2F780FF04C08FEFFD
:10026000FA01808302C0FA01108280E0089581E0E3
:100270000895843060F4E82FF0E0E05AFF4FE08109
:10028000F0E012928081682B608380E0089581E025
:100290000895843048F4E82FF0E0E05AFF4FE08101
:1002A000F0E0608380E0089581E00895843060F498
:1002B000E82FF0E0E05AFF4FE081F0E032978081D4
:1002C000FB01808380E0089581E008950E94410051
:0A02D00080E090E00895F894FFCF5D
:1002DA003B38353201FF0002000004FF0008FF002E
:1002EA0010FF0020FF0040FF0080FF0001FF000216
:1002FA00000004FF0008FF0010FF0020FF0040007C
:10030A000080FF0001FF0002000004FF0008FF0058
:10031A0010FF0020FF0040FF0080FF0001FF0002E5
:10032A00000004FF0008FF0010FF0020FF0040FF4C
:04033A000080FF0040
:00000001FF
