S01E0000456D6265646465645F46696E616C5F50726F6A6563742E737265637D
S11300000C942A000C943F000C943F000C943F0085
S11300100C943F000C943F000C943F000C943F0060
S11300200C943F000C943F000C943F000C943F0050
S11300300C943F000C943F000C943F000C943F0040
S11300400C943F000C943F000C943F000C943F0030
S11300500C943F0011241FBECFE5D8E0DEBFCDBF16
S113006011E0A0E6B0E0E2E9F4E002C005900D92F0
S1130070A232B107D9F70E9456010C9447020C949E
S11300800000E62FF0E0E659FF4FE581F0E0209113
S11300906E0030E0AF01440F551FE40FF51FA901B6
S11300A0440F551F240F351F220F331F220F331FF8
S11300B0220F331FE20FF31FEF53FF4F908198235A
S11300C081E009F480E081950895FF920F931F93D6
S11300D0CF93DF93807FF82E0FE610E0C0E0D0913D
S11300E06E006C2F8F2D0E944100F80161918F01E9
S11300F0482F8D2F0E942702CF5FC83091F7DF91E0
S1130100CF911F910F91FF900895FF920F931F932A
S1130110CF93DF93F82EFF0CFF0CFF0CFF0C0FE6C0
S113012010E0C0E0D0916E006C2F8F2D0E94410032
S1130130F80161918F01482F8D2F0E942702CF5F14
S1130140C83091F7DF91CF911F910F91FF900895DF
S1130150EAE6F0E040E0618180810E942702089590
S1130160EAE6F0E04FEF618180810E942702089562
S1130170EAE6F0E040E0628180810E94270208956F
S1130180EAE6F0E04FEF638180810E942702089540
S1130190EAE6F0E040E0638180810E94270208954E
S11301A0CF93C82F0E9465000E94A8000E94B80047
S11301B00E94C00000000E94C80082E48A95F1F702
S11301C000C08C2F0E9485000E94A8000E94B800E5
S11301D00E94C00000000E94C80000C0CF91089592
S11301E0CF93C82F0E9465000E94B0000E94B800FF
S11301F00E94C00000000E94C80082E48A95F1F7C2
S113020000C08C2F0E9485000E94B0000E94B8009C
S11302100E94C00000000E94C80000C0CF91089551
S113022087E893E10197F1F700C0000082E00E94A3
S1130230D00088E20E94D0008CE00E94D00086E0CA
S11302400E94D00081E00E94D00000C00895CF93A6
S1130250DF93EC018881882331F021960E94F0001D
S113026089918111FBCFDF91CF910895CF93DF93D3
S1130270EA01811108C0603178F4862F8F7080689C
S11302800E94D00009C0813039F4603128F4862FEF
S11302908F70806C0E94D000CE010E942701DF91F4
S11302A0CF91089581E00E94D000089583E090E00A
S11302B00E94EC0182E090E00E94EC010E94100197
S11302C083E00E94CA01FFCFCF93C9E08CE10E9472
S11302D0D00087EA91E60197F1F700C00000C15011
S11302E0A9F7C9E088E10E94D00087EA91E6019766
S11302F0F1F700C00000C150A9F7CF9108950E9402
S1130300520180E20E94F00047E750E060E080E0A4
S11303100E9436014EE750E06AE080E00E94360118
S113032045E850E060E081E00E94360108951F93A3
S1130330CF93DF9300D0CDB7DEB7182F4BE950E051
S113034064E080E00E9436018DEC189F812D112419
S1130350869586958695E82FF0E0E05AFF4F9081C8
S11303609983880F982F990F990F890F181BE12FE4
S1130370F0E0E05AFF4F80818A83AE014F5F5F4F08
S113038064E080E00E9436010F900F90DF91CF91DE
S11303901F910895CF93C82F80E20E94F0004EE988
S11303A050E060E080E00E943601CC2321F00E94FE
S11303B06401C150E1F70E947F012FE38DE093E0D7
S11303C0215080409040E1F700C0000087E090E0B9
S11303D00E949701CF910895CF93DF93843098F5CD
S11303E090E0FC01E354FF4FA081B0E0ED012197C0
S11303F0FC01EE0FFF1FE80FF91FEE0FFF1FEE0FBA
S1130400FF1FEE0FFF1FEF53FF4F48E0888130813D
S1130410932F90958923888328818181532F582392
S1130420252B28832C91982B92239C939C91228199
S1130430232380958223892B8C9341503396411139
S1130440E5CF80E001C081E0DF91CF910895843051
S1130450D0F46830D0F4E82FF0E0E354FF4FE081AB
S1130460F0E0208181E090E002C0880F991F6A9536
S1130470E2F7982F90959223908390818423892B7F
S1130480808380E0089581E0089581E00895F894E0
S1050490FFCF98
S1130492303132333435363738390300010202043D
S11304A2050607000000005345543A323500435212
S11304B2543A59590053544154453A5354414E44C1
S11304C242590020202020202020202020005745AF
S11304D24C434F4D45004F5045524154494F4E00F5
S11304E24E4F524D414C004552524F52003B38350B
S11304F23201FF0002000004FF0008FF0010FF00A9
S113050220FF0040FF0080FF000100000200000401
S1130512000008FF0010FF0020FF0040000080FFE1
S11305220001FF0002FF0004FF0008FF0010FF00AB
S113053220FF0040FF0080FF0001FF0002FF0004D3
S1130542FF0008000010000020000040000080FFAF
S10505520000A3
S9030000FC
