:100000000C942A000C943F000C943F000C943F0089
:100010000C943F000C943F000C943F000C943F0064
:100020000C943F000C943F000C943F000C943F0054
:100030000C943F000C943F000C943F000C943F0044
:100040000C943F000C943F000C943F000C943F0034
:100050000C943F0011241FBECFE5D8E0DEBFCDBF1A
:1000600011E0A0E6B0E0EEECF4E002C005900D92E5
:10007000A631B107D9F70E94C4010C9465020C9413
:100080000000EF92FF921F93CF93DF93C0EAD0E07E
:100090000F2EF4EAEF2EF0E0FF2EF02D10919F00CE
:1000A00069914FEF812F0E942402CE15DF05C1F721
:1000B000DF91CF911F91FF90EF9008954F925F9243
:1000C0006F927F928F929F92AF92BF92CF92DF9268
:1000D000EF92FF920F931F93CF93DF930F2EFCE9C4
:1000E000AF2EF0E0BF2EF02D55245A94712C0F2E18
:1000F000FBE98F2EF0E09F2EF02DF40140800F2EB3
:10010000F4EACF2EF0E0DF2EF02DF50161905F01D3
:100110004FEF662D842D0E940402C0EAD0E0F72C38
:10012000F401E480699100E010E0A8018E2D0E94A6
:100130004402F8018081811101C05F2CF3E0FF0EC1
:10014000CC15DD0579F740E0662D842D0E94040270
:10015000739483E07812D9CF852DDF91CF911F91D1
:100160000F91FF90EF90DF90CF90BF90AF909F9056
:100170008F907F906F905F904F900895CF93DF9313
:10018000CDB7DEB768970FB6F894DEBF0FBECDBF10
:1001900088E1E0E6F0E0DE01119601900D928A958B
:1001A000E1F782E00E94C90183E00E94C90181E079
:1001B0000E94C9010E9441000E947D0180E80E94C6
:1001C00059018EE790E00E94990188E790E00E9433
:1001D000990140E850E06AE080E00E94A80180ECCC
:1001E0000E9459010E945E008F3FE1F3E82FF0E08A
:1001F000EE0FFF1F81E090E08C0F9D1FE80FF91FAD
:100200004081518160E081E00E94A801EBCFDF9244
:10021000EF92FF920F931F93CF93DF9309EA10E0C1
:10022000C0E0D0E0E82EF12CD090A800F801619158
:100230008F01A7010C2E02C0559547950A94E2F74D
:10024000417041958D2D0E9424022196C830D10520
:1002500069F7DF91CF911F910F91FF90EF90DF90A1
:100260000895E4EAF0E040E0618180810E94240288
:100270000895E4EAF0E04FEF618180810E9424025A
:100280000895E4EAF0E040E0628180810E94240267
:100290000895E4EAF0E04FEF638180810E94240238
:1002A0000895E4EAF0E040E0638180810E94240246
:1002B00008950E9407010E9431010E9441010E949D
:1002C000490100000E94510183EF91E00197F1F78D
:1002D00000C0000008950E9407010E9439010E9499
:1002E00041010E94490100000E94510183EF91E009
:1002F0000197F1F700C00000089587E893E10197A6
:10030000F1F700C0000088E30E9459018CE00E94D0
:10031000590186E00E94590181E00E94590183EF52
:1003200091E00197F1F700C0000080E80E945901B8
:100330000895CF93DF93EC018881882331F02196D3
:100340000E946B0189918111FBCFDF91CF910895BC
:10035000CF93DF93EA01811108C0603178F4862FD2
:100360008F7080680E94590109C0813039F4603172
:1003700028F4862F8F70806C0E945901CE010E9454
:100380009901DF91CF9108950E94BE0080E090E036
:100390000895CF93DF93843098F590E0FC01EF54FB
:1003A000FF4FA081B0E0ED012197FC01EE0FFF1F90
:1003B000E80FF91FEE0FFF1FEE0FFF1FEE0FFF1FDD
:1003C000EB54FF4F48E088813081932F909589232B
:1003D000888328818181532F5823252B28832C91B2
:1003E000982B92239C939C91228123238095822396
:1003F000892B8C93415033964111E5CF80E001C0A9
:1004000081E0DF91CF9108958430D0F46830D0F44A
:10041000E82FF0E0EF54FF4FE081F0E0229181E01F
:1004200090E002C0880F991F6A95E2F7982F909587
:100430009223908390818423892B808380E0089588
:1004400081E0089581E008958430D0F46830D0F4DC
:10045000E82FF0E0EF54FF4FE081F0E0208181E0F1
:1004600090E002C0880F991F6A95E2F7982F909547
:100470009223908390818423892B808380E0089548
:1004800081E0089581E008958430D8F46830D8F48C
:10049000E82FF0E0EF54FF4FE081F0E032978081E9
:1004A00090E002C0959587956A95E2F780FF05C0B8
:1004B0008FEFFA01808380E00895FA01108280E0D6
:0E04C000089581E0089581E00895F894FFCF3B
:1004CE008500870089008B008D008F0091009300BE
:1004DE00950089009700990048454C4C4F3A2000F2
:1004EE004B494D4F002A0030003300370038003999
:1004FE0000340035003600320031000100010203E5
:10050E0003040506030001020200010203040506AE
:10051E00073B38353201FF0002000004FF0008FFE0
:10052E000010FF0020FF0040FF0080FF00010000D0
:10053E0002000004000008FF0010FF0020FF004032
:10054E00000080FF0001FF0002FF0004FF0008FF13
:10055E000010FF0020FF0040FF0080FF0001FF00A1
:10056E0002FF0004FF000800001000002000004001
:06057E00000080FF0000F8
:00000001FF
