:100000000C942A000C943F000C943F000C943F0089
:100010000C943F000C943F000C943F000C943F0064
:100020000C943F000C943F000C943F000C943F0054
:100030000C943F000C943F000C943F000C943F0044
:100040000C943F000C943F000C943F000C943F0034
:100050000C943F0011241FBECFE5D8E0DEBFCDBF1A
:1000600011E0A0E6B0E0E0E7F5E002C005900D92F7
:10007000A831B107D9F70E9417020C94B6020C946C
:100080000000EF92FF921F93CF93DF93C2EAD0E07C
:100090000F2EF6EAEF2EF0E0FF2EF02D1091A100CA
:1000A00069914FEF812F0E947502CE15DF05C1F7D0
:1000B000DF91CF911F91FF90EF9008954F925F9243
:1000C0006F927F928F929F92AF92BF92CF92DF9268
:1000D000EF92FF920F931F93CF93DF930F2EFEE9C2
:1000E000AF2EF0E0BF2EF02D55245A94712C0F2E18
:1000F000FDE98F2EF0E09F2EF02DF40140800F2EB1
:10010000F6EACF2EF0E0DF2EF02DF50161905F01D1
:100110004FEF662D842D0E945502C2EAD0E0F72CE5
:10012000F401E480699100E010E0A8018E2D0E94A6
:100130009502F8018081811101C05F2CF3E0FF0E70
:10014000CC15DD0579F740E0662D842D0E9455021F
:10015000739483E07812D9CF852DDF91CF911F91D1
:100160000F91FF90EF90DF90CF90BF90AF909F9056
:100170008F907F906F905F904F900895CF93DF9313
:10018000CDB7DEB768970FB6F894DEBF0FBECDBF10
:1001900088E1E0E6F0E0DE01119601900D928A958B
:1001A000E1F782E00E941A0283E00E941A0281E0D5
:1001B0000E941A020E9441000E94D5018EE790E041
:1001C0000E94B50148E750E060E080E00E94FB013A
:1001D00040E850E06AE080E00E94FB0180EC0E9471
:1001E00095010E945E008F3FE1F3E82FF0E0EE0FF3
:1001F000FF1F81E090E08C0F9D1FE80FF91F4081E9
:10020000518160E081E00E94FB01EBCFE62FF0E03E
:10021000EA55FF4FE581F0E02091AA0030E0AF0100
:10022000440F551FE40FF51FA901440F551F240F5C
:10023000351F220F331F220F331F220F331FE20FF0
:10024000F31FE954FF4F9081982381E009F480E087
:1002500081950895FF920F931F93CF93DF93807F33
:10026000F82E0BEA10E0C0E0D091AA006C2F8F2D81
:100270000E940601F80161918F01482F8D2F0E9485
:100280007502CF5FC83091F7DF91CF911F910F9129
:10029000FF900895FF920F931F93CF93DF93F82E53
:1002A000FF0CFF0CFF0CFF0C0BEA10E0C0E0D0913C
:1002B000AA006C2F8F2D0E940601F80161918F0119
:1002C000482F8D2F0E947502CF5FC83091F7DF91C4
:1002D000CF911F910F91FF900895E6EAF0E040E082
:1002E000618180810E9475020895E6EAF0E04FEF97
:1002F000618180810E9475020895E6EAF0E040E0A5
:10030000628180810E9475020895E6EAF0E04FEF75
:10031000638180810E9475020895E6EAF0E040E082
:10032000638180810E9475020895CF93C82F0E9437
:100330002A010E946D010E947D010E94850100003A
:100340000E948D0182E48A95F1F700C08C2F0E94F3
:100350004A010E946D010E947D010E9485010000FA
:100360000E948D0100C0CF910895CF93C82F0E94A5
:100370002A010E9475010E947D010E9485010000F2
:100380000E948D0182E48A95F1F700C08C2F0E94B3
:100390004A010E9475010E947D010E9485010000B2
:1003A0000E948D0100C0CF91089587E893E10197E5
:1003B000F1F700C0000082E00E94950188E20E94EF
:1003C00095018CE00E94950186E00E94950181E0F4
:1003D0000E94950100C00895CF93DF93EC018881BE
:1003E000882331F021960E94B50189918111FBCFBC
:1003F000DF91CF910895CF93DF93EA01811108C077
:10040000603178F4862F8F7080680E94950109C052
:10041000813039F4603128F4862F8F70806C0E940F
:100420009501CE010E94EC01DF91CF9108950E94C9
:10043000BE00FFCFCF93DF93843098F590E0FC01AE
:10044000ED54FF4FA081B0E0ED012197FC01EE0FCC
:10045000FF1FE80FF91FEE0FFF1FEE0FFF1FEE0F3C
:10046000FF1FE954FF4F48E088813081932F90951A
:100470008923888328818181532F5823252B288322
:100480002C91982B92239C939C91228123238095DD
:100490008223892B8C93415033964111E5CF80E024
:1004A00001C081E0DF91CF9108958430D0F46830AD
:1004B000D0F4E82FF0E0ED54FF4FE081F0E022911E
:1004C00081E090E002C0880F991F6A95E2F7982FAB
:1004D00090959223908390818423892B808380E060
:1004E000089581E0089581E008958430D0F4683063
:1004F000D0F4E82FF0E0ED54FF4FE081F0E02081F0
:1005000081E090E002C0880F991F6A95E2F7982F6A
:1005100090959223908390818423892B808380E01F
:10052000089581E0089581E008958430D8F468301A
:10053000D8F4E82FF0E0ED54FF4FE081F0E032977F
:10054000808190E002C0959587956A95E2F780FFDB
:1005500005C08FEFFA01808380E00895FA011082D0
:1005600080E0089581E0089581E00895F894FFCF38
:100570008500870089008B008D008F00910093001B
:100580009500970099009B0048454C4C4F3A20003D
:100590004B494D4F002A0030002300370038003906
:1005A0000034003500360031003200330001000114
:1005B0000203030405060300010202040506070006
:1005C0000000003B38353201FF0002000004FF004C
:1005D00008FF0010FF0020FF0040FF0080FF000127
:1005E000000002000004000008FF0010FF0020FFD0
:1005F0000040000080FF0001FF0002FF0004FF0038
:1006000008FF0010FF0020FF0040FF0080FF0001F6
:10061000FF0002FF0004FF0008000010000020009F
:080620000040000080FF000013
:00000001FF
