S01E0000456D6265646465645F46696E616C5F50726F6A6563742E737265637D
S11300000C942A000C943F000C943F000C943F0085
S11300100C943F000C943F000C943F000C943F0060
S11300200C943F000C943F000C943F000C943F0050
S11300300C943F000C943F000C943F000C943F0040
S11300400C943F000C943F000C943F000C943F0030
S11300500C943F0011241FBECFE5D8E0DEBFCDBF16
S113006010E0A0E6B0E0E6EAF3E002C005900D92ED
S1130070A63EB107D9F70E943B010C94D1010C9420
S11300800000DF92EF92FF920F931F93CF93DF93C1
S11300900AE710E0C0E0D0E0E82EF12CD09079001F
S11300A0F80161918F01A7010C2E02C05595479567
S11300B00A94E2F7417041958D2D0E949B0121968F
S11300C0C830D10569F7DF91CF911F910F91FF904F
S11300D0EF90DF900895E5E7F0E040E061818081F2
S11300E00E949B010895E5E7F0E04FEF6181808174
S11300F00E949B010895E5E7F0E040E06281808181
S11301000E949B010895E5E7F0E04FEF6381808151
S11301100E949B010895E5E7F0E040E0638180815F
S11301200E949B0108950E9441000E946B000E945E
S11301307B000E94830000000E948B0083EF91E00B
S11301400197F1F700C0000008950E9441000E9449
S113015073000E947B000E94830000000E948B00B9
S113016083EF91E00197F1F700C00000089587E85C
S113017093E10197F1F700C0000088E30E94930027
S11301808CE00E94930086E00E94930081E00E942C
S1130190930083EF91E00197F1F700C0000080E83D
S11301A00E9493000895CF93DF93EC018881882304
S11301B031F021960E94A50089918111FBCFDF9136
S11301C0CF910895EF92FF920F931F93CF93DF93F4
S11301D0CDB7DEB728970FB6F894DEBF0FBECDBFFC
S11301E088E0E0E6F0E0DE01119601900D928A9538
S11301F0E1F782E00E94400183E00E9440010E94F6
S1130200B70080E80E94930088E690E00E94D30043
S113021080E80E9493008AE690E00E94D3008CE874
S11302200E94930080E790E00E94D30080EC0E943B
S113023093008E010F5F1F4F7E0189E0E80EF11CD1
S1130240F80181918F010E94A50080E20E94A5001F
S1130250E016F106A9F728960FB6F894DEBF0FBE94
S1130260CDBFDF91CF911F910F91FF90EF90089533
S11302700E94BB0108950E94E2000E943801FFCF52
S1130280CF93DF93843098F590E0FC01EE57FF4F55
S1130290A081B0E0ED012197FC01EE0FFF1FE80FF4
S11302A0F91FEE0FFF1FEE0FFF1FEE0FFF1FEA57A0
S11302B0FF4F48E088813081932F9095892388836C
S11302C028818181532F5823252B28832C91982B07
S11302D092239C939C912281232380958223892BB2
S11302E08C93415033964111E5CF80E001C081E009
S11302F0DF91CF9108958430D0F46830D0F4E82FA2
S1130300F0E0EE57FF4FE081F0E0229181E090E0D1
S113031002C0880F991F6A95E2F7982F909592234F
S1130320908390818423892B808380E0089581E0E9
S1130330089581E008958430D0F46830D0F4E82F33
S1130340F0E0EE57FF4FE081F0E0208181E090E0A3
S113035002C0880F991F6A95E2F7982F909592230F
S1130360908390818423892B808380E0089581E0A9
S1130370089581E0089540E064E081E00E947B01FB
S113038040E065E081E00E947B014FEF66E081E0A0
S11303900E947B0140E067E081E00E947B016E9A4D
S10903A00895F894FFCF5C
S11303A66162636465666768200048454C4C4F008B
S11303B64B494D4F000300010202000102030405EC
S11303C606073B38353201FF0002000004FF00082F
S11303D6FF0010FF0020FF0040FF0080FF0001FF28
S11303E60002000004FF0008FF0010FF0020FF00C9
S11303F640000080FF0001FF0002FF0004FF000828
S1130406FF0010FF0020FF0040FF0080FF0001FFF7
S11304160002FF0004FF0008FF0010FF0020FF0099
S109042640FF0080FF000E
S9030000FC
