:100000000C942A000C943F000C943F000C943F0089
:100010000C943F000C943F000C943F000C943F0064
:100020000C943F000C943F000C943F000C943F0054
:100030000C943F000C943F000C943F000C943F0044
:100040000C943F000C943F000C943F000C943F0034
:100050000C943F0011241FBECFE5D8E0DEBFCDBF1A
:1000600010E0A0E6B0E0E0E0F1E002C005900D9203
:10007000A436B107D9F70E9444000C947E000C947A
:1000800000000E94670008950E944100FFCF843065
:10009000D0F46830D0F4E82FF0E0E05AFF4FE08170
:1000A000F0E0229181E090E002C0880F991F6A95EC
:1000B000E2F7982F90959223908390818423892B47
:1000C000808380E0089581E0089581E008954FEFF6
:1000D00064E081E00E9447004FEF65E081E00E940C
:1000E000470040E066E081E00E9447004FEF67E094
:1000F00081E00E94470080E58DB90895F894FFCF14
:040100003B38353221
:00000001FF
