:100000000C942A000C9447000C9447000C94470071
:100010000C94D1000C9447000C9447000C9485017B
:100020000C9447000C9447000C9447000C94470034
:100030000C9447000C9447000C9447000C94470024
:100040000C9447000C9447000C9447000C94470014
:100050000C94470011241FBECFE5D8E0DEBFCDBF12
:1000600011E0A0E6B0E0E6EEFDE002C005900D92E2
:10007000AC38B107D9F721E0ACE8B1E001C01D927E
:10008000A03BB207E1F70E94DB040C94F1060C944C
:1000900000004091620060E080E00E9431028091A7
:1000A000620080958093620008954091610061E054
:1000B00080E00E9431028091610080958093610010
:1000C00008954091600062E080E00E9431028091DA
:1000D000600080958093600008950F931F93CF93E5
:1000E000DF93EC018B0182E00E94AA0481110CC015
:1000F000109299011092980110929B0110929A010E
:1001000010929D0110929C012091980130919901CB
:10011000232B11F120919A0130919B01232BF9F0AF
:1001200020919C0130919D01232BE1F0811134C07D
:1001300040E061E082E00E94970283E683BD89B7D8
:10014000806889BF789468E070E082E0DF91CF91A9
:100150001F910F910C945F0320E030E005C021E077
:1001600030E002C022E030E0220F331FF901E856F0
:10017000FE4F118300839AE09C9FA0019D9F500D2C
:100180001124F901EC55FE4F51834083F901EE56DD
:10019000FE4F51834083CACFDF91CF911F910F91C2
:1001A00008951F920F920FB60F9211240F931F9371
:1001B0002F933F934F935F936F937F938F939F936F
:1001C000AF93BF93CF93DF93EF93FF93C8E9D1E051
:1001D00002E911E080E0E881F981309769F0D80107
:1001E0008D919C91119701978D939C93892B19F474
:1001F00009951982188281E022960E5F1F4FB1E0A7
:10020000CE39DB0741F7811106C089B78D7F89BFE1
:1002100082E00E94E703FF91EF91DF91CF91BF91C0
:10022000AF919F918F917F916F915F914F913F918E
:100230002F911F910F910F900FBE0F901F90189547
:100240000F931F93CF93DF93EC018B0181E00E940A
:10025000AA04482F81110CC010929F0110929E0198
:100260001092A1011092A0011092A3011092A2017C
:1002700080919E0190919F01892B19F18091A0019D
:100280009091A101892B01F18091A2019091A3018C
:10029000892BE9F0411134C061E081E00E949702AE
:1002A0008CE093E09BBD8ABD89B7806189BF78945B
:1002B00060E074E081E0DF91CF911F910F910C9489
:1002C0005F0320E030E005C021E030E002C022E022
:1002D00030E0220F331FF901E256FE4F11830083F5
:1002E000CE0164E670E00E94FD04F901E655FE4F80
:1002F00071836083F901E457FE4F71836083CACF35
:10030000DF91CF911F910F9108951F920F920FB619
:100310000F921124EF92FF920F931F932F933F930D
:100320004F935F936F937F938F939F93AF93BF93FD
:10033000CF93DF93EF93FF930EE911E08AEAE82E63
:1003400081E0F82ECCE8D1E080E0D801ED91FD917C
:100350008D01309771F08881998101979983888305
:10036000892B31F40995F7018081918199838883E4
:1003700081E0F2E0EF0EF11C229691E0043A1907B9
:1003800021F7811106C089B78F7E89BF81E00E9465
:10039000E703FF91EF91DF91CF91BF91AF919F91D3
:1003A0008F917F916F915F914F913F912F911F910D
:1003B0000F91FF90EF900F900FBE0F901F90189528
:1003C000CF93DF93843060F5E82FF0E0E85DFE4FD7
:1003D000A081B0E0ED01219798E1899FF0011124FF
:1003E000E45DFE4F20E088814081942F9095892321
:1003F000888338818181542F5823352B38833C9151
:10040000982B93239C939C91328134238095832352
:10041000892B8C932F5F3396283029F780E001C019
:1004200081E0DF91CF9108958430C8F46830B8F44A
:10043000E82FF0E0E85DFE4FE081F0E0229181E0FE
:1004400090E001C0880F6A95EAF7982F9095922363
:10045000908390818423892B808380E0089581E0BC
:1004600008958430C8F46830B8F4E82FF0E0E85D0F
:10047000FE4FE081F0E0208181E090E001C0880F34
:100480006A95EAF7982F9095922390839081842320
:10049000892B808380E0089581E008958430D0F432
:1004A0006830C0F4E82FF0E0E85DFE4FE081F0E056
:1004B0003297808190E002C0959587956A95E2F722
:1004C00080FF04C08FEFFA01808302C0FA0110821E
:1004D00080E0089581E00895843050F4E82FF0E042
:1004E000E85DFE4FE081F0E03197608380E00895A1
:1004F00081E00895843048F4E82FF0E0E85DFE4F95
:10050000E081F0E0608380E0089581E00895843028
:1005100060F4E82FF0E0E85DFE4FE081F0E0329714
:100520008081FB01808380E0089581E008959F929F
:10053000AF92BF92CF92DF92EF92FF920F931F93F1
:10054000CF93DF93833008F0AEC0E82FF0E0EB5D8F
:10055000FE4F908191116BC090912301891721F07A
:1005600091E020912401281390E0892F90E09C01D4
:10057000220F331FF901ED58FF4F90801181F901CF
:10058000E159FF4FF0800181FC01E45EFE4FE08005
:10059000FC01E85EFE4FB080E901C158DF4F588191
:1005A000F901E758FF4FA081B181E52FF981A12C16
:1005B000DE2ED51ADE1430F4D190D61201C0AC90E4
:1005C0001196F6CFF901E559FF4FA081B1815C91F9
:1005D000BC01665E7E4FEB01688165236C930190E0
:1005E000F081E02D50815A295083C92DAF2DB02FB5
:1005F000E92DF12F50E06E2F6C1B6B1530F46191DB
:10060000641301C05C911196F6CFF901E559FF4FD3
:10061000A081B1812C91EC01CA5EDE4F98819223BA
:100620009C930190F081E02D8081852B3BC091301F
:10063000D1F54091120120917D00A0917700B091F9
:100640007800E22FF0917E0090E080E03E2F321B98
:10065000341748F43191631304C09C9111968C9126
:1006600011971296F3CFE0916700F0916800308106
:100670002091100123232083E0916900F0916A000A
:1006800030812091110123232083E0916700F091B4
:1006900068002081922B9083E0916900F0916A00BC
:1006A0009081892B8083DF91CF911F910F91FF90D3
:1006B000EF90DF90CF90BF90AF909F9008951F93E1
:1006C000CF93DF93833008F07EC0E82FF0E0EB5D3E
:1006D000FE4F908191113CC090912301891721F028
:1006E00091E020912401281390E0892F90E0FC01F3
:1006F000E05EFE4F10819C01220F331FF901E55788
:10070000FF4FA081B181E901CB57DF4F5881E52F21
:10071000F98140E0CE2FC51BC11740F4CD91DD918A
:10072000C617D70709F440813196F4CFF901E5598E
:10073000FF4FA081B1812C91EC01C25EDE4F988108
:1007400092239C930190F081E02D8081842B3AC00C
:100750009130C9F530911501A0918900B0918A00BE
:10076000E0918300F091840090E080E020E0231786
:1007700051F04D915D916417750711F4908181815D
:100780002F5F3296F4CFE0916700F09168003081DE
:100790002091130123232083E0916900F0916A00E6
:1007A00030812091140123232083E0916700F09190
:1007B00068002081922B9083E0916900F0916A009B
:1007C0009081892B8083DF91CF911F910895833091
:1007D000C0F5E82FF0E0EB5DFE4F9081911117C05E
:1007E00090912301891721F0E1E090912401981361
:1007F000E0E0F0E0EE0FFF1FE559FF4FA081B1816F
:100800008C91887F8C930190F081E02D18C09130FD
:10081000C1F4E0916700F091680080818083E091ED
:100820006900F0916A0080811082E0916700F09188
:10083000680080818083E0916900F0916A00808186
:10084000808308950F93CF93DF93833008F07EC0A9
:10085000E82FF0E0EB5DFE4F9081911177C0909111
:100860002301891721F0E1E0909124019813E0E041
:10087000CB01BA012330C9F50130D1F4F0E0EE0F1D
:10088000FF1FED59FF4FC081D18120E030E040E8EB
:1008900053E40E94840620E030E048EC52E40E94D9
:1008A000920520E030E040E85FE30E94250532C079
:1008B000023009F04BC0F0E0EE0FFF1FED59FF4F83
:1008C000C081D18120E030E040E853E40E948406FA
:1008D00020E030E048EC52E40E94920520E030E055
:1008E00040E85FE30E9425052DC00130B1F4F0E03F
:1008F000EE0FFF1FED59FF4FC081D18120E030E0A6
:100900004FE753E40E94840620E030E048EC52E4D4
:100910000E9492050E94040618C00230B9F4F0E06B
:10092000EE0FFF1FED59FF4FC081D18120E030E075
:100930004FE753E40E94840620E030E048EC52E4A4
:100940000E9492050E94040660956883DF91CF9112
:100950000F910895833068F5E82FF0E0EB5DFE4FCE
:100960009081911115C090912301891721F0E1E048
:10097000909124019813E0E0F0E0EE0FFF1FE5599D
:10098000FF4F0190F081E02D2081277030E00EC0F4
:10099000913079F4E0916700F09168008081E091F6
:1009A0006900F0916A00208130E0277081E0232BFC
:1009B00009F480E008954FEF60E080E00E941402A7
:1009C0004FEF61E080E00E9414024FEF62E080E0B0
:1009D0000E94140269E470E088EE93E00E946D00CA
:1009E00065E570E080ED97E00E946D0061E670E0E3
:1009F00080EA9FE00E946D00FFCF97FB072E16F460
:100A0000009407D077FD09D00E94110507FC05D09E
:100A10003EF4909581959F4F0895709561957F4F15
:100A20000895AA1BBB1B51E107C0AA1FBB1FA61735
:100A3000B70710F0A61BB70B881F991F5A95A9F787
:100A400080959095BC01CD0108955058BB27AA27E9
:100A50000E943D050C944A060E943C0638F00E9414
:100A6000430620F039F49F3F19F426F40C9439061C
:100A70000EF4E095E7FB0C943306E92F0E945B0629
:100A800058F3BA17620773078407950720F079F4C3
:100A9000A6F50C947D060EF4E0950B2EBA2FA02D32
:100AA0000B01B90190010C01CA01A0011124FF271B
:100AB000591B99F0593F50F4503E68F11A16F04016
:100AC000A22F232F342F4427585FF3CF4695379515
:100AD0002795A795F0405395C9F77EF41F16BA0BDA
:100AE000620B730B840BBAF09150A1F0FF0FBB1F88
:100AF000661F771F881FC2F70EC0BA0F621F731FD1
:100B0000841F48F4879577956795B795F7959E3F2D
:100B100008F0B0CF9395880F08F09927EE0F9795BE
:100B2000879508950E94A6050C944A060E944306E4
:100B300058F00E943C0640F029F45F3F29F00C94E5
:100B4000330651110C947E060C9439060E945B0604
:100B500068F39923B1F3552391F3951B550BBB27EC
:100B6000AA2762177307840738F09F5F5F4F220F31
:100B7000331F441FAA1FA9F335D00E2E3AF0E0E828
:100B800032D091505040E695001CCAF72BD0FE2F72
:100B900029D0660F771F881FBB1F26173707480706
:100BA000AB07B0E809F0BB0B802DBF01FF279358BE
:100BB0005F4F3AF09E3F510578F00C9433060C9449
:100BC0007E065F3FE4F3983ED4F38695779567956C
:100BD000B795F7959F5FC9F7880F911D96958795F3
:100BE00097F90895E1E0660F771F881FBB1F621712
:100BF00073078407BA0720F0621B730B840BBA0BD0
:100C0000EE1F88F7E09508950E94630688F09F57CD
:100C100098F0B92F9927B751B0F0E1F0660F771F20
:100C2000881F991F1AF0BA95C9F714C0B13091F016
:100C30000E947D06B1E008950C947D06672F782F01
:100C40008827B85F39F0B93FCCF3869577956795DB
:100C5000B395D9F73EF490958095709561957F4F47
:100C60008F4F9F4F089597F99F6780E870E060E08D
:100C700008959FEF80EC089500240A941616170635
:100C800018060906089500240A941216130614067D
:100C900005060895092E0394000C11F4882352F0E0
:100CA000BB0F40F4BF2B11F460FF04C06F5F7F4F98
:100CB0008F4F9F4F089557FD9058440F551F59F07F
:100CC0005F3F71F04795880F97FB991F61F09F3F39
:100CD00079F087950895121613061406551FF2CF62
:100CE0004695F1DF08C0161617061806991FF1CFB2
:100CF00086957105610508940895E894BB276627D9
:100D00007727CB0197F908950E9497060C944A061D
:100D10000E943C0638F00E94430620F0952311F013
:100D20000C9433060C94390611240C947E060E9410
:100D30005B0670F3959FC1F3950F50E0551F629FBE
:100D4000F001729FBB27F00DB11D639FAA27F00D24
:100D5000B11DAA1F649F6627B00DA11D661F829F4B
:100D60002227B00DA11D621F739FB00DA11D621F30
:100D7000839FA00D611D221F749F3327A00D611D4D
:100D8000231F849F600D211D822F762F6A2F11242F
:100D90009F5750409AF0F1F088234AF0EE0FFF1F62
:100DA000BB1F661F771F881F91505040A9F79E3FB9
:100DB000510580F00C9433060C947E065F3FE4F3FB
:100DC000983ED4F3869577956795B795F795E7950F
:100DD0009F5FC1F7FE2B880F911D9695879597F918
:060DE0000895F894FFCF16
:100DE600FFFFFF5C0043004F004E0053004500F339
:100DF600008F00F6009200B200F9009500D000FDC9
:100E0600009900DF0001019D00E9000601A4000031
:100E160020300001020008404800010203010203DD
:100E260004050607010008002000400080000001BC
:100E36000004000000084000480000000000000018
:100E4600000000000000000000000000000000009C
:100E56000001020300000000000000000000000086
:100E66000100020003000400050100080040000024
:100E76000100040020300001020008404800010281
:100E860003010203040501000800400000010004FC
:100E9600FCE70FFFF805CFCF0303B7B70404F8F854
:100EA60005070100020001003B38353201FF000250
:100EB600000004FF0008FF0010FF0020FF0040FFB5
:100EC6000080FF0001000002000004000008FF008F
:100ED60010FF0020FF0040000080FF0001FF00021D
:100EE600FF0004FF0008FF0010FF0020FF0040FF86
:100EF6000080FF0001FF0002FF0004FF0008000061
:0C0F060010000020000040000080FF00F0
:00000001FF
