:100000000C942A000C9447000C9447000C94470071
:100010000C9447000C9447000C9447000C94470044
:100020000C9447000C9447000C9447000C94470034
:100030000C9447000C9447000C9447000C94470024
:100040000C9447000C9447000C9447000C94470014
:100050000C94470011241FBECFE5D8E0DEBFCDBF12
:1000600010E0A0E6B0E0E6EDF3E002C005900D92EE
:10007000A63CB107D9F720E0A6ECB0E001C01D9284
:10008000A73CB207E1F70E94B8010C94E9010C9477
:100090000000282F6AE00E94CF01492F092E000C92
:1000A000550B43FF05C09061492F990F550B02C0B6
:1000B00047745270822F6AE00E94CF01282F082EC9
:1000C000000C330B23FF05C08061082E000C990B38
:1000D00003C0C90187749270DB9A45BBEFE0F7E279
:1000E0003197F1F700C000001BBADA9A85BB8FE0A8
:1000F00097E20197F1F700C000001BBA08950E9433
:10010000CD00813011F00E94AF008093610080919A
:1001100061000895809160000895809360000895C3
:1001200081E00C94960080E00C949600CF93C82F49
:1001300060E080E00E94D0004FEF64E081E00E9428
:10014000520180E80E94F900C093C6008C2F0E94E3
:10015000F90040E064E081E0CF910C94520180917D
:10016000C600811118C04FEF64E081E00E94520187
:1001700082E00E94F90080E00E94F90040E064E023
:1001800081E00E9452018FEC97E00197F1F700C0E7
:1001900000000C94FD0081E008958091C600089550
:1001A000CF93DF93D82FC62F4FEF64E081E00E94FA
:1001B00035014FEF65E081E00E94350140E066E0E7
:1001C00081E00E9435014FEF67E081E00E94350138
:1001D0006C9A689869986E9AD13011F46D9A01C042
:1001E0006D98C11102C06A9A01C06A98DF91CF91DF
:1001F00008958FB9779BFECF0895779BFECF8FB17F
:100200000895CF93DF93843060F5E82FF0E0EE5946
:10021000FF4FA081B0E0ED01219798E1899FF001A7
:100220001124EA59FF4F20E088814081942F909556
:100230008923888338818181542F5823352B388333
:100240003C91982B93239C939C91328134238095ED
:100250008323892B8C932F5F3396283029F780E0F6
:1002600001C081E0DF91CF9108958430C8F46830F7
:10027000B8F4E82FF0E0EE59FF4FE081F0E0229172
:1002800081E090E001C0880F6A95EAF7982F909579
:100290009223908390818423892B808380E008952A
:1002A00081E008958430C8F46830B8F4E82FF0E0B5
:1002B000EE59FF4FE081F0E0208181E090E001C045
:1002C000880F6A95EAF7982F9095922390839081F2
:1002D0008423892B808380E0089581E00895843011
:1002E000D0F46830C0F4E82FF0E0EE59FF4FE08121
:1002F000F0E03297808190E002C0959587956A95ED
:10030000E2F780FF04C08FEFFA01808302C0FA0198
:10031000108280E0089581E00895843050F4E82F41
:10032000F0E0EE59FF4FE081F0E03197608380E02C
:10033000089581E00895843048F4E82FF0E0EE5904
:10034000FF4FE081F0E0608380E0089581E0089550
:10035000843060F4E82FF0E0EE59FF4FE081F0E0E8
:1003600032978081FB01808380E0089581E00895C9
:100370000E9493008FEF84BB8ABB80EC8BBF83E02D
:1003800085BFD098D89A0E947F00813009F483E617
:100390000E944900C899F7CF0E949000F4CF87FBD4
:1003A000082E062687FD819567FD61950E94DD0177
:1003B0000EF4919507FC81950895991B79E004C08E
:1003C000991F961708F0961B881F7A95C9F7809594
:0603D0000895F894FFCF30
:1003D60001013B38353201FF0002000004FF00082E
:1003E600FF0010FF0020FF0040FF0080FF0001001B
:1003F6000002000004000008FF0010FF0020FF00BC
:1004060040000080FF0001FF0002FF0004FF00081B
:10041600FF0010FF0020FF0040FF0080FF0001FFEB
:100426000002FF0004FF000800001000002000008A
:0604360040000080FF0001
:00000001FF
