:100000000C942A000C943F000C943F000C943F0089
:100010000C943F000C943F000C943F000C943F0064
:100020000C943F000C943F000C943F000C943F0054
:100030000C943F000C943F000C943F000C943F0044
:100040000C943F000C943F000C943F000C943F0034
:100050000C943F0011241FBECFE5D8E0DEBFCDBF1A
:1000600011E0A0E6B0E0ECE7FDE002C005900D92E3
:10007000A63EB107D9F70E94D5040C94BC060C9497
:1000800000009F92AF92BF92CF92DF92EF92FF92C9
:100090000F931F93CF93DF93833008F0A6C0E82F10
:1000A000F0E0E15EFE4F9081911163C0282F217036
:1000B00030E0C901880F991FFC01E059FF4F908083
:1000C0001181FC01E459FF4FF0800181F901E75EE5
:1000D000FE4FE080F901EB5EFE4FB080EC01C458AA
:1000E000DF4F5881FC01EA58FF4FA081B181E52F15
:1000F000F981A12CDE2ED51ADE1430F4D190D6125F
:1001000001C0AC901196F6CFFC01E859FF4FA081D9
:10011000B1815C91B901695E7E4FEB016881652315
:100120006C930190F081E02D50815A295083C92DA4
:10013000AF2DB02FE92DF12F50E06E2F6C1B6B15FA
:1001400030F46191641301C05C911196F6CFFC010B
:10015000E859FF4FA081B1818C91E901CD5EDE4F5E
:10016000988198239C930190F081E02D8081852BCC
:100170003BC09130D1F540910F0120917A00A091C0
:100180007400B0917500E22FF0917B0090E080E068
:100190003E2F321B341748F43191631304C09C91F5
:1001A00011968C9111971296F3CFE0916400F09123
:1001B0006500308120910D0123232083E0916600AA
:1001C000F0916700308120910E0123232083E0917C
:1001D0006400F09165002081922B9083E09166008D
:1001E000F09167009081892B8083DF91CF911F91DF
:1001F0000F91FF90EF90DF90CF90BF90AF909F90C6
:1002000008951F93CF93DF93833008F076C0E82FD3
:10021000F0E0E15EFE4F9081911134C0282F2170F3
:1002200030E0F901E35EFE4F1081C901880F991F8C
:10023000FC01E857FF4FA081B181EC01CE57DF4FA1
:100240005881E52FF98140E0CE2FC51BC11740F43E
:10025000CD91DD91C617D70709F440813196F4CFCF
:10026000FC01E859FF4FA081B1818C91E901C55E85
:10027000DE4F988198239C930190F081E02D80813E
:10028000842B3AC09130C9F530911201A0918600BB
:10029000B0918700E0918000F091810090E080E0D3
:1002A00020E0231751F04D915D916417750711F40B
:1002B000908181812F5F3296F4CFE0916400F091BC
:1002C000650030812091100123232083E091660096
:1002D000F091670030812091110123232083E09168
:1002E0006400F09165002081922B9083E09166007C
:1002F000F09167009081892B8083DF91CF911F91CE
:100300000895833098F5E82FF0E0E15EFE4F90818C
:10031000911111C0282F217030E0220F331FF901F5
:10032000E859FF4FA081B1818C91887F8C93019017
:10033000F081E02D19C09130C9F4E0916400F09192
:1003400065008081887F8083E0916600F09167007E
:1003500080811082E0916400F0916500808180834B
:10036000E0916600F09167008081808308950F938B
:10037000CF93DF93E82F833008F076C0A82FB0E04A
:10038000A15EBE4F8C9181116FC0CB01BA01E170AB
:100390002330C9F50130D1F4F0E0EE0FFF1FE05A31
:1003A000FF4FC081D18120E030E040E853E40E945B
:1003B0004F0620E030E048EC52E40E945D0520E06A
:1003C00030E040E85FE30E94F00432C0023009F000
:1003D0004BC0F0E0EE0FFF1FE05AFF4FC081D1810C
:1003E00020E030E040E853E40E944F0620E030E097
:1003F00048EC52E40E945D0520E030E040E85FE315
:100400000E94F0042DC00130B1F4F0E0EE0FFF1FA8
:10041000E05AFF4FC081D18120E030E04FE753E444
:100420000E944F0620E030E048EC52E40E945D0557
:100430000E94CF0518C00230B9F4F0E0EE0FFF1FA4
:10044000E05AFF4FC081D18120E030E04FE753E414
:100450000E944F0620E030E048EC52E40E945D0527
:100460000E94CF0560956883DF91CF910F91089529
:100470001F93CF93DF93CFE3D1E010913E016991B9
:100480004FEF812F0E946F0481E0C334D807B9F782
:10049000DF91CF911F9108957F928F929F92AF929B
:1004A000BF92CF92DF92EF92FF920F931F93CF9361
:1004B000DF932BE3E22E21E0F22E1FEFC0E000914C
:1004C0003A0180903E01F70191907F014FEF692D35
:1004D000802F0E9452048FE3C82E81E0D82E9CE02A
:1004E000792E7C0EDC2FF60161916F01A12CB12CCD
:1004F000A501882D0E948C04F5018081811101C025
:100500001D2FDD5F7D12EFCF40E0692D802F0E940F
:100510005204CF5FC330B9F6812FDF91CF911F9185
:100520000F91FF90EF90DF90CF90BF90AF909F9092
:100530008F907F900895CF93DF93CDB7DEB7689704
:100540000FB6F894DEBF0FBECDBF88E1E2E2F1E066
:10055000DE01119601900D928A95E1F782E00E94EA
:100560001E0483E00E941E0481E00E941E040E947B
:1005700038020E94690380E80E943F0382EC91E008
:100580000E9484038CEB91E00E94840344EC51E0D0
:100590006AE080E00E94900380EC0E943F030E948A
:1005A0004C028F3FE1F3FE013196E80FF11DE80F99
:1005B000F11D4081518160E081E00E949003EFCF06
:1005C00090E002C0959587956A95E2F781708195D4
:1005D0000895DF92EF92FF920F931F93CF93DF93D3
:1005E00090E5E92E91E0F92EC0E0D0E0082F10E070
:1005F000D0904F01F70161917F01A8010C2E02C03C
:10060000559547950A94E2F7417041958D2D0E94CA
:100610006F042196C830D10569F7DF91CF911F9102
:100620000F91FF90EF90DF900895EBE4F1E040E050
:10063000618180810C946F04EBE4F1E04FEF618104
:1006400080810C946F04EBE4F1E04FEF62818081D4
:100650000C946F04EBE4F1E040E0628180810C9443
:100660006F04EBE4F1E04FEF638180810C946F0441
:10067000EBE4F1E040E0638180810C946F040E9420
:10068000E9020E9415030E942A030E94310382E0BE
:100690008A95F1F700C00E9438038FE99FE0019727
:1006A000F1F700C0000008950E94E9020E941C03B7
:1006B0000E942A030E94310382E08A95F1F700C06C
:1006C0000E9438038FE99FE00197F1F700C0000016
:1006D00008958FE39CE90197F1F700C0000088E3DB
:1006E0000E943F038CE00E943F0386E00E943F038C
:1006F00081E00E943F038FE99FE00197F1F700C07E
:10070000000080E80C943F03CF93DF93EC018991C4
:10071000882319F00E945403FACFDF91CF910895F6
:10072000CF93DF93EA01811105C0603158F4862F21
:10073000806806C0813031F4603120F4862F806CEF
:100740000E943F03CE01DF91CF910C94840381E09E
:100750000E943F0380E80C943F030F931F93CF93B5
:10076000DF93883080F48B01880F880F880F805CBE
:100770000E943F03E801085F1F4F89910E945403C4
:10078000C017D107D1F7DF91CF911F910F91089535
:10079000EF92FF920F931F93CF93DF93CDB7DEB706
:1007A00028970FB6F894DEBF0FBECDBF88E0E3E414
:1007B000F1E0DE01119601900D928A95E1F782E059
:1007C0000E941E0483E00E941E040E94690380E8C8
:1007D0000E943F0382EC91E00E94840380E80E9423
:1007E0003F038FED91E00E9484038CE80E943F0359
:1007F00084EC91E00E94840380EC0E943F038E0110
:100800000F5F1F4F7E0189E0E80EF11CF801819116
:100810008F010E94540380E20E9454030E151F05AD
:10082000A9F728960FB6F894DEBF0FBECDBFDF91B3
:10083000CF911F910F91FF90EF900895CF93DF9389
:10084000843060F5E82FF0E0E85AFE4FA081B0E078
:10085000ED01219798E1899FF0011124E45AFE4FA0
:1008600020E088814081942F909589238883388166
:100870008181542F5823352B38833C91982B932317
:100880009C939C913281342380958323892B8C9374
:100890002F5F3396283029F780E001C081E0DF9197
:1008A000CF9108958430C8F46830B8F4E82FF0E0B0
:1008B000E85AFE4FE081F0E0229181E090E001C033
:1008C000880F6A95EAF7982F9095922390839081EC
:1008D0008423892B808380E0089581E0089584300B
:1008E000C8F46830B8F4E82FF0E0E85AFE4FE08131
:1008F000F0E0208181E090E001C0880F6A95EAF77E
:10090000982F90959223908390818423892B8083C4
:1009100080E0089581E008958430D0F46830C0F418
:10092000E82FF0E0E85AFE4FE081F0E03297808156
:1009300090E002C0959587956A95E2F780FF04C024
:100940008FEFFA01808302C0FA01108280E00895DF
:1009500081E00895843050F4E82FF0E0E85AFE4F2B
:10096000E081F0E03197608380E0089581E00895B0
:10097000843048F4E82FF0E0E85AFE4FE081F0E0E0
:10098000608380E0089581E00895843060F4E82F6A
:10099000F0E0E85AFE4FE081F0E032978081FB0101
:1009A000808380E0089581E008950E949B024FEFCC
:1009B00063E081E00E94520441E062E080E00E9436
:1009C000410001E022E040E050E060EA71E480E0B4
:1009D0000E94B70168E070E080E00E940101FFCF53
:1009E0005058BB27AA270E9408050C9415060E94A0
:1009F000070638F00E940E0620F039F49F3F19F4E4
:100A000026F40C9404060EF4E095E7FB0C94FE0526
:100A1000E92F0E94260658F3BA1762077307840766
:100A2000950720F079F4A6F50C9448060EF4E095AD
:100A30000B2EBA2FA02D0B01B90190010C01CA0198
:100A4000A0011124FF27591B99F0593F50F4503E43
:100A500068F11A16F040A22F232F342F4427585F35
:100A6000F3CF469537952795A795F0405395C9F74D
:100A70007EF41F16BA0B620B730B840BBAF0915005
:100A8000A1F0FF0FBB1F661F771F881FC2F70EC0A4
:100A9000BA0F621F731F841F48F487957795679577
:100AA000B795F7959E3F08F0B0CF9395880F08F063
:100AB0009927EE0F9795879508950E9471050C94DC
:100AC00015060E940E0658F00E94070640F029F411
:100AD0005F3F29F00C94FE0551110C9449060C94CB
:100AE00004060E94260668F39923B1F3552391F377
:100AF000951B550BBB27AA2762177307840738F08D
:100B00009F5F5F4F220F331F441FAA1FA9F335D0E9
:100B10000E2E3AF0E0E832D091505040E695001C9D
:100B2000CAF72BD0FE2F29D0660F771F881FBB1F57
:100B3000261737074807AB07B0E809F0BB0B802D35
:100B4000BF01FF2793585F4F3AF09E3F510578F061
:100B50000C94FE050C9449065F3FE4F3983ED4F3F1
:100B6000869577956795B795F7959F5FC9F7880F35
:100B7000911D9695879597F90895E1E0660F771F87
:100B8000881FBB1F621773078407BA0720F0621B18
:100B9000730B840BBA0BEE1F88F7E09508950E9443
:100BA0002E0688F09F5798F0B92F9927B751B0F0CB
:100BB000E1F0660F771F881F991F1AF0BA95C9F7E1
:100BC00014C0B13091F00E944806B1E008950C9431
:100BD0004806672F782F8827B85F39F0B93FCCF3E4
:100BE000869577956795B395D9F73EF4909580955E
:100BF000709561957F4F8F4F9F4F089597F99F672D
:100C000080E870E060E008959FEF80EC0895002494
:100C10000A941616170618060906089500240A9461
:100C200012161306140605060895092E0394000CE7
:100C300011F4882352F0BB0F40F4BF2B11F460FF76
:100C400004C06F5F7F4F8F4F9F4F089557FD90589F
:100C5000440F551F59F05F3F71F04795880F97FB80
:100C6000991F61F09F3F79F087950895121613063A
:100C70001406551FF2CF4695F1DF08C01616170669
:100C80001806991FF1CF869571056105089408959E
:100C9000E894BB2766277727CB0197F908950E9430
:100CA00062060C9415060E94070638F00E940E0694
:100CB00020F0952311F00C94FE050C9404061124E9
:100CC0000C9449060E94260670F3959FC1F3950F78
:100CD00050E0551F629FF001729FBB27F00DB11DC0
:100CE000639FAA27F00DB11DAA1F649F6627B00D50
:100CF000A11D661F829F2227B00DA11D621F739F39
:100D0000B00DA11D621F839FA00D611D221F749F46
:100D10003327A00D611D231F849F600D211D822F8D
:100D2000762F6A2F11249F5750409AF0F1F08823B4
:100D30004AF0EE0FFF1FBB1F661F771F881F9150E1
:100D40005040A9F79E3F510580F00C94FE050C948D
:100D500049065F3FE4F3983ED4F38695779567950F
:100D6000B795F795E7959F5FC1F7FE2B880F911D0B
:0C0D70009695879597F90895F894FFCFA9
:100D7C005C0043004F004E0053004500F0008C0017
:100D8C00F3008F00AF00F6009200CD00FA00960041
:100D9C00DC00FE009A00E6000301A10000203000F8
:100DAC000102000840480001020301020304050689
:100DBC000701000800200040008000000100040032
:100DCC000000084000480000000000000000000087
:100DDC000000000000000000000000000000010204
:100DEC0003000000000000000000000000010002F1
:100DFC00000300040005010008004000000100048D
:100E0C0000203000010200084048000102030102EA
:100E1C0003040501000800400000010004FCF30F6E
:100E2C00FFF805CFCF0303B7B70404F8F8050700A4
:100E3C000100C901CB01CD01CF01D101D301D501F5
:100E4C00D701D901CD01DB01DD0101000102030352
:100E5C00040506616263646566676803000102024B
:100E6C0000010203040506073B38353201FF00027E
:100E7C00000004FF0008FF0010FF0020FF0040FFEF
:100E8C000080FF0001000002000004000008FF00C9
:100E9C0010FF0020FF0040000080FF0001FF000257
:100EAC00FF0004FF0008FF0010FF0020FF0040FFC0
:100EBC000080FF0001FF0002FF0004FF000800009B
:100ECC0010000020000040000080FF0048454C4C02
:100EDC004F3A20004B494D4F002A00300033003769
:100EEC00003800390034003500360032003100483B
:060EFC00454C4C4F0000C4
:00000001FF
