:100000000C942A000C9447000C9447000C94470071
:100010000C948D020C9447000C9447000C944700FC
:100020000C9447000C9447000C9447000C94470034
:100030000C9447000C9447000C9447000C94470024
:100040000C9447000C9447000C9447000C94470014
:100050000C94470011241FBECFE5D8E0DEBFCDBF12
:1000600011E0A0E6B0E0E4EBFAE002C005900D92EA
:10007000AA38B107D9F721E0AAE8B1E001C01D9282
:10008000A139B207E1F70E947F030C9458050C9444
:1000900000004091600060E080E00E9419038091C0
:1000A00060008095809360000895AF92BF92CF92D8
:1000B000DF92EF92FF920F931F93CF93DF938330E2
:1000C00008F0B0C0E82FF0E0ED5DFE4F9081911197
:1000D0006DC090912101891721F091E020912201BA
:1000E000281390E0892F90E09C01220F331FF90123
:1000F000EF58FF4F7081F180F901E359FF4FE08025
:10010000D180FC01E65EFE4FC080FC01EA5EFE4F3E
:10011000B080890103581F4FE801A880F901E95810
:10012000FF4FA081B181EA2DF98150E01E2F1A19ED
:100130001C1530F41191611301C05C911196F6CF3A
:10014000F901E759FF4FA081B181CC908C01085E85
:100150001E4FE80168816C216C930190F081E02DC5
:100160006081562B5083C72FAE2DBD2DE72FFF2D5D
:1001700050E06E2F6C1B6B1530F46191461301C07B
:100180005C911196F6CFF901E759FF4FA081B1813B
:100190002C91EC01CC5EDE4F888182238C93019000
:1001A000F081E02D8081582B50833CC09130D1F5F7
:1001B0004091100120917B00A0917500B0917600D4
:1001C000E22FF0917C0090E080E03E2F321B34174C
:1001D00048F43191631304C09C9111968C9111974E
:1001E0001296F3CFE0916500F09166003081209186
:1001F0000E0123232083E0916700F0916800308195
:1002000020910F0123232083E0916500F091660087
:100210002081922B9083E0916700F091680090819B
:10022000892B8083DF91CF911F910F91FF90EF90E9
:10023000DF90CF90BF90AF9008951F93CF93DF933F
:10024000833008F07FC0E82FF0E0ED5DFE4F908135
:1002500091113DC090912101891721F091E02091E9
:100260002201281390E0892F90E0FC01E25EFE4F0E
:1002700010819C01220F331FF901E757FF4FA08126
:10028000B181E901CD57DF4F5881E52FF98140E079
:10029000CE2FC51BC11740F4CD91DD916C177D07A2
:1002A00009F440813196F4CFF901E759FF4FA0815D
:1002B000B1812C91EC01C45EDE4F888182238C9346
:1002C0000190F081E02D8081482B40833BC091302C
:1002D000C9F530911301A0918700B0918800E09199
:1002E0008100F091820090E080E020E0321751F030
:1002F0004D915D916417750711F4908181812F5F95
:100300003296F4CFE0916500F09166003081209143
:10031000110123232083E0916700F0916800308170
:100320002091120123232083E0916500F091660063
:100330002081922B9083E0916700F091680090817A
:10034000892B8083DF91CF911F9108958330C8F569
:10035000E82FF0E0ED5DFE4F9081911117C0909174
:100360002101891721F0E1E0909122019813E0E04A
:10037000F0E0EE0FFF1FE759FF4FA081B1818C9194
:10038000887F8C930190F081E02D19C09130C9F4E1
:10039000E0916500F09166008081887F8083E09124
:1003A0006700F091680080811082E0916500F09113
:1003B000660080818083E0916700F0916800808111
:1003C000808308950F93CF93DF93833008F07EC02E
:1003D000E82FF0E0ED5DFE4F9081911177C0909194
:1003E0002101891721F0E1E0909122019813E0E0CA
:1003F000CB01BA012330C9F50130D1F4F0E0EE0FA2
:10040000FF1FEF59FF4FC081D18120E030E040E86D
:1004100053E40E94EB0420E030E048EC52E40E94F8
:10042000F90320E030E040E85FE30E948C0332C033
:10043000023009F04BC0F0E0EE0FFF1FEF59FF4F05
:10044000C081D18120E030E040E853E40E94EB0419
:1004500020E030E048EC52E40E94F90320E030E074
:1004600040E85FE30E948C032DC00130B1F4F0E05E
:10047000EE0FFF1FEF59FF4FC081D18120E030E028
:100480004FE753E40E94EB0420E030E048EC52E4F4
:100490000E94F9030E946B0418C00230B9F4F0E026
:1004A000EE0FFF1FEF59FF4FC081D18120E030E0F8
:1004B0004FE753E40E94EB0420E030E048EC52E4C4
:1004C0000E94F9030E946B0460956883DF91CF91CD
:1004D0000F910895CF93C82F8093900150938F016F
:1004E00040938E0140E061E00E94550083E683BDA9
:1004F00068E070E08C2F0E941D0180E197E29093EC
:100500008D0180938C0110928B0110928A0189B722
:10051000806889BF7894CF9108951F920F920FB68B
:100520000F9211242F933F934F935F936F937F9379
:100530008F939F93AF93BF93EF93FF9380918A0123
:1005400090918B01019690938B0180938A01209169
:100550008C0130918D018217930749F410928B0121
:1005600010928A01E0918E01F0918F010995FF911F
:10057000EF91BF91AF919F918F917F916F915F911B
:100580004F913F912F910F900FBE0F901F90189594
:10059000CF93DF93843060F5E82FF0E0EA5DFE4F03
:1005A000A081B0E0ED01219798E1899FF00111242D
:1005B000E65DFE4F20E088814081942F909589234D
:1005C000888338818181542F5823352B38833C917F
:1005D000982B93239C939C91328134238095832381
:1005E000892B8C932F5F3396283029F780E001C048
:1005F00081E0DF91CF9108958430C8F46830B8F479
:10060000E82FF0E0EA5DFE4FE081F0E0229181E02A
:1006100090E001C0880F6A95EAF7982F9095922391
:10062000908390818423892B808380E0089581E0EA
:1006300008958430C8F46830B8F4E82FF0E0EA5D3B
:10064000FE4FE081F0E0208181E090E001C0880F62
:100650006A95EAF7982F909592239083908184234E
:10066000892B808380E0089581E008958430D0F460
:100670006830C0F4E82FF0E0EA5DFE4FE081F0E082
:100680003297808190E002C0959587956A95E2F750
:1006900080FF04C08FEFFA01808302C0FA0110824C
:1006A00080E0089581E00895843050F4E82FF0E070
:1006B000EA5DFE4FE081F0E03197608380E00895CD
:1006C00081E00895843048F4E82FF0E0EA5DFE4FC1
:1006D000E081F0E0608380E0089581E00895843057
:1006E00060F4E82FF0E0EA5DFE4FE081F0E0329741
:1006F0008081FB01808380E0089581E008954FEFC1
:1007000060E080E00E94FC0249E450E060E070E0BC
:1007100082E00E946A02FFCF5058BB27AA270E949E
:10072000A4030C94B1040E94A30438F00E94AA040C
:1007300020F039F49F3F19F426F40C94A0040EF431
:10074000E095E7FB0C949A04E92F0E94C20458F349
:10075000BA17620773078407950720F079F4A6F5A6
:100760000C94E4040EF4E0950B2EBA2FA02D0B018F
:10077000B90190010C01CA01A0011124FF27591BE6
:1007800099F0593F50F4503E68F11A16F040A22FEC
:10079000232F342F4427585FF3CF4695379527955D
:1007A000A795F0405395C9F77EF41F16BA0B620B5C
:1007B000730B840BBAF09150A1F0FF0FBB1F661FA3
:1007C000771F881FC2F70EC0BA0F621F731F841FE6
:1007D00048F4879577956795B795F7959E3F08F00C
:1007E000B0CF9395880F08F09927EE0F97958795CE
:1007F00008950E940D040C94B1040E94AA0458F0BC
:100800000E94A30440F029F45F3F29F00C949A045D
:1008100051110C94E5040C94A0040E94C20468F3E6
:100820009923B1F3552391F3951B550BBB27AA27A9
:1008300062177307840738F09F5F5F4F220F331FE3
:10084000441FAA1FA9F335D00E2E3AF0E0E832D0AB
:1008500091505040E695001CCAF72BD0FE2F29D0AE
:10086000660F771F881FBB1F261737074807AB0780
:10087000B0E809F0BB0B802DBF01FF2793585F4FF5
:100880003AF09E3F510578F00C949A040C94E504DC
:100890005F3FE4F3983ED4F3869577956795B795D7
:1008A000F7959F5FC9F7880F911D9695879597F9E2
:1008B0000895E1E0660F771F881FBB1F621773075B
:1008C0008407BA0720F0621B730B840BBA0BEE1F70
:1008D00088F7E09508950E94CA0488F09F5798F021
:1008E000B92F9927B751B0F0E1F0660F771F881F35
:1008F000991F1AF0BA95C9F714C0B13091F00E944F
:10090000E404B1E008950C94E404672F782F88275D
:10091000B85F39F0B93FCCF3869577956795B39575
:10092000D9F73EF490958095709561957F4F8F4FE4
:100930009F4F089597F99F6780E870E060E0089501
:100940009FEF80EC089500240A94161617061806E7
:100950000906089500240A941216130614060506C3
:100960000895092E0394000C11F4882352F0BB0F54
:1009700040F4BF2B11F460FF04C06F5F7F4F8F4FB7
:100980009F4F089557FD9058440F551F59F05F3FF2
:1009900071F04795880F97FB991F61F09F3F79F0A1
:1009A00087950895121613061406551FF2CF469523
:1009B000F1DF08C0161617061806991FF1CF8695A5
:1009C0007105610508940895E894BB276627772789
:1009D000CB0197F908950E94FE040C94B1040E9483
:1009E000A30438F00E94AA0420F0952311F00C947F
:1009F0009A040C94A00411240C94E5040E94C204EF
:100A000070F3959FC1F3950F50E0551F629FF00161
:100A1000729FBB27F00DB11D639FAA27F00DB11D7A
:100A2000AA1F649F6627B00DA11D661F829F222703
:100A3000B00DA11D621F739FB00DA11D621F839F8A
:100A4000A00D611D221F749F3327A00D611D231F60
:100A5000849F600D211D822F762F6A2F11249F57AE
:100A600050409AF0F1F088234AF0EE0FFF1FBB1FB1
:100A7000661F771F881F91505040A9F79E3F510570
:100A800080F00C949A040C94E5045F3FE4F3983EE4
:100A9000D4F3869577956795B795F795E7959F5F1A
:100AA000C1F7FE2B880F911D9695879597F90895AC
:040AB000F894FFCFE8
:100AB400FF5C0043004F004E0053004500F1008DE1
:100AC40000F4009000B000F7009300CE00FB009704
:100AD40000DD00FF009B00E7000401A200002030BD
:100AE400000102000840480001020301020304055A
:100AF40006070100080020004000800000010004F7
:100B04000000000840004800000000000000000051
:100B140000000000000000000000000000000001D0
:100B240002030000000000000000000000000100BB
:100B34000200030004000501000800400000010059
:100B440004002030000102000840480001020301B3
:100B54000203040501000800400000010004FCF346
:100B64000FFFF805CFCF0303B7B70404F8F8050760
:100B74000100020001003B38353201FF0002000091
:100B840004FF0008FF0010FF0020FF0040FF00806A
:100B9400FF0001000002000004000008FF0010FF35
:100BA4000020FF0040000080FF0001FF0002FF0062
:100BB40004FF0008FF0010FF0020FF0040FF00803A
:100BC400FF0001FF0002FF0004FF00080000100006
:0A0BD4000020000040000080FF0038
:00000001FF
