:100000000C942A000C943F000C943F000C943F0089
:100010000C943F000C943F000C943F000C943F0064
:100020000C943F000C943F000C943F000C943F0054
:100030000C943F000C943F000C943F000C943F0044
:100040000C943F000C943F000C943F000C943F0034
:100050000C943F0011241FBECFE5D8E0DEBFCDBF1A
:1000600010E0A0E6B0E0E4EFF4E002C005900D92ED
:10007000A43CB107D9F70E94AB010C9478020C9410
:100080000000282F6AE00E94C201492F092E000CAF
:10009000550B43FF05C09061492F990F550B02C0C6
:1000A00047745270822F6AE00E94C201282F082EE6
:1000B000000C330B23FF05C08061082E000C990B48
:1000C00003C0C90187749270DB9A45BBEFE0F7E289
:1000D0003197F1F700C000001BBADA9A85BB8FE0B8
:1000E00097E20197F1F700C000001BBA0895CF9383
:1000F000C82F60E080E00E94AD004FEF64E081E037
:100100000E94450180E80E94EC008C2F0E94EC00C8
:1001100040E064E081E0CF910C9445014FEF64E052
:1001200081E00E94450182E00E94EC0080E00E9494
:10013000EC0040E064E081E00E9445018FEC97E034
:100140000197F1F700C000000E94F000682F70E0F6
:1001500080E090E00E9412020895CF93DF93D82FA1
:10016000C62F4FEF64E081E00E9428014FEF65E069
:1001700081E00E94280140E066E081E00E942801C1
:100180004FEF67E081E00E9428016C9A68986998B7
:100190006E9AD13011F46D9A01C06D98C11102C0F0
:1001A0006A9A01C06A98DF91CF91089540E064E0B7
:1001B00081E00E94280140E065E081E00E94280182
:1001C0004FEF66E081E00E94280140E067E081E0B7
:1001D0000E9428016E9A08958FB9779BFECF0895EB
:1001E000779BFECF8FB10895CF93DF93843060F576
:1001F000E82FF0E0E05AFF4FA081B0E0ED01219739
:1002000098E1899FF0011124EC59FF4F20E088818B
:100210004081942F90958923888338818181542F40
:100220005823352B38833C91982B93239C939C9196
:100230003281342380958323892B8C932F5F3396CF
:10024000283029F780E001C081E0DF91CF91089547
:100250008430C8F46830B8F4E82FF0E0E05AFF4F7B
:10026000E081F0E0229181E090E001C0880F6A9582
:10027000EAF7982F90959223908390818423892B7D
:10028000808380E0089581E008958430C8F4683068
:10029000B8F4E82FF0E0E05AFF4FE081F0E0208171
:1002A00081E090E001C0880F6A95EAF7982F909559
:1002B0009223908390818423892B808380E008950A
:1002C00081E008958430D0F46830C0F4E82FF0E085
:1002D000E05AFF4FE081F0E03297808190E002C069
:1002E000959587956A95E2F780FF04C08FEFFA0134
:1002F000808302C0FA01108280E0089581E00895B1
:10030000843050F4E82FF0E0E05AFF4FE081F0E055
:100310003197608380E0089581E00895843048F447
:10032000E82FF0E0E05AFF4FE081F0E0608380E0EA
:10033000089581E00895843060F4E82FF0E0E05AF9
:10034000FF4FE081F0E032978081FB01808380E005
:10035000089581E008958FEF84BB8ABB80E00E94FE
:1003600077002FE789EA93E0215080409040E1F741
:1003700000C000000E948E000E94DC01862F0E94B7
:100380004100F8CF87FB082E062687FD819567FD83
:1003900061950E94D0010EF4919507FC8195089516
:1003A000991B79E004C0991F961708F0961B881FC7
:1003B0007A95C9F7809508950E94E3016894B11178
:1003C0000C94720208950E94570288F09F5798F08B
:1003D000B92F9927B751B0F0E1F0660F771F881F4A
:1003E000991F1AF0BA95C9F714C0B13091F00E9464
:1003F0007102B1E008950C947102672F782F88275D
:10040000B85F39F0B93FCCF3869577956795B3958A
:10041000D9F73EF490958095709561957F4F8F4FF9
:100420009F4F0895E89409C097FB3EF490958095FE
:10043000709561957F4F8F4F9F4F9923A9F0F92FAA
:1004400096E9BB279395F695879577956795B79528
:10045000F111F8CFFAF4BB0F11F460FF1BC06F5F0E
:100460007F4F8F4F9F4F16C0882311F096E911C020
:10047000772321F09EE8872F762F05C0662371F041
:1004800096E8862F70E060E02AF09A95660F771F55
:10049000881FDAF7880F9695879597F9089557FD85
:1004A0009058440F551F59F05F3F71F04795880FE2
:1004B00097FB991F61F09F3F79F087950895121679
:1004C00013061406551FF2CF4695F1DF08C0161625
:1004D00017061806991FF1CF8695710561050894D6
:1004E0000895E894BB2766277727CB0197F90895ED
:0404F000F894FFCFAE
:1004F4003B38353201FF0002000004FF0008FF0012
:1005040010FF0020FF0040FF0080FF0001FF0002F9
:10051400000004FF0008FF0010FF0020FF0040005F
:100524000080FF0001FF0002000004FF0008FF003C
:1005340010FF0020FF0040FF0080FF0001FF0002C9
:10054400000004FF0008FF0010FF0020FF0040FF30
:040554000080FF0024
:00000001FF
